{"abi":[{"type":"constructor","inputs":[],"stateMutability":"nonpayable"},{"type":"function","name":"addName","inputs":[{"name":"_name","type":"string","internalType":"string"}],"outputs":[],"stateMutability":"nonpayable"},{"type":"function","name":"createRequest","inputs":[{"name":"user","type":"address","internalType":"address"},{"name":"_amount","type":"uint256","internalType":"uint256"},{"name":"_message","type":"string","internalType":"string"}],"outputs":[],"stateMutability":"nonpayable"},{"type":"function","name":"getMyHistory","inputs":[{"name":"_user","type":"address","internalType":"address"}],"outputs":[{"name":"","type":"tuple[]","internalType":"struct Paypal.SendReceive[]","components":[{"name":"action","type":"string","internalType":"string"},{"name":"amount","type":"uint256","internalType":"uint256"},{"name":"message","type":"string","internalType":"string"},{"name":"otherPartyAddress","type":"address","internalType":"address"},{"name":"otherPartyName","type":"string","internalType":"string"}]}],"stateMutability":"view"},{"type":"function","name":"getMyRequests","inputs":[{"name":"_user","type":"address","internalType":"address"}],"outputs":[{"name":"","type":"address[]","internalType":"address[]"},{"name":"","type":"uint256[]","internalType":"uint256[]"},{"name":"","type":"string[]","internalType":"string[]"},{"name":"","type":"string[]","internalType":"string[]"}],"stateMutability":"view"},{"type":"function","name":"getName","inputs":[{"name":"_user","type":"address","internalType":"address"}],"outputs":[{"name":"","type":"tuple","internalType":"struct Paypal.UserName","components":[{"name":"name","type":"string","internalType":"string"},{"name":"hasName","type":"bool","internalType":"bool"}]}],"stateMutability":"view"},{"type":"function","name":"owner","inputs":[],"outputs":[{"name":"","type":"address","internalType":"address"}],"stateMutability":"view"},{"type":"function","name":"payRequest","inputs":[{"name":"_request","type":"uint256","internalType":"uint256"}],"outputs":[],"stateMutability":"payable"}],"bytecode":{"object":"0x608060405234801561001057600080fd5b50600080546001600160a01b03191633179055611782806100326000396000f3fe6080604052600436106100705760003560e01c80635fd4b08a1161004e5780635fd4b08a146100fd57806363d4dd3b1461012a5780638da5cb5b1461013d578063ba9a7a9e1461017557600080fd5b806311456b4714610075578063347b1b8314610097578063370068aa146100d0575b600080fd5b34801561008157600080fd5b50610095610090366004611187565b610195565b005b3480156100a357600080fd5b506100b76100b23660046111e0565b6101c3565b6040516100c794939291906112a2565b60405180910390f35b3480156100dc57600080fd5b506100f06100eb3660046111e0565b61058a565b6040516100c7919061134e565b34801561010957600080fd5b5061011d6101183660046111e0565b6107d6565b6040516100c79190611410565b610095610138366004611444565b6108b5565b34801561014957600080fd5b5060005461015d906001600160a01b031681565b6040516001600160a01b0390911681526020016100c7565b34801561018157600080fd5b5061009561019036600461145d565b610b88565b336000908152600160205260409020806101af838261153f565b506001908101805460ff1916909117905550565b6001600160a01b03811660009081526002602052604081205460609182918291829167ffffffffffffffff8111156101fd576101fd6110e4565b604051908082528060200260200182016040528015610226578160200160208202803683370190505b506001600160a01b0387166000908152600260205260408120549192509067ffffffffffffffff81111561025c5761025c6110e4565b604051908082528060200260200182016040528015610285578160200160208202803683370190505b506001600160a01b0388166000908152600260205260408120549192509067ffffffffffffffff8111156102bb576102bb6110e4565b6040519080825280602002602001820160405280156102ee57816020015b60608152602001906001900390816102d95790505b506001600160a01b0389166000908152600260205260408120549192509067ffffffffffffffff811115610324576103246110e4565b60405190808252806020026020018201604052801561035757816020015b60608152602001906001900390816103425790505b50905060005b6001600160a01b038a1660009081526002602052604090205481101561057a576001600160a01b038a1660009081526002602052604081208054839081106103a7576103a76115ff565b60009182526020909120600490910201805487519192506001600160a01b0316908790849081106103da576103da6115ff565b60200260200101906001600160a01b031690816001600160a01b0316815250508060010154858381518110610411576104116115ff565b60200260200101818152505080600201805461042c906114b4565b80601f0160208091040260200160405190810160405280929190818152602001828054610458906114b4565b80156104a55780601f1061047a576101008083540402835291602001916104a5565b820191906000526020600020905b81548152906001019060200180831161048857829003601f168201915b50505050508483815181106104bc576104bc6115ff565b60200260200101819052508060030180546104d6906114b4565b80601f0160208091040260200160405190810160405280929190818152602001828054610502906114b4565b801561054f5780601f106105245761010080835404028352916020019161054f565b820191906000526020600020905b81548152906001019060200180831161053257829003601f168201915b5050505050838381518110610566576105666115ff565b60209081029190910101525060010161035d565b5092989197509550909350915050565b6001600160a01b0381166000908152600360209081526040808320805482518185028101850190935280835260609492939192909184015b828210156107cb57838290600052602060002090600502016040518060a00160405290816000820180546105f5906114b4565b80601f0160208091040260200160405190810160405280929190818152602001828054610621906114b4565b801561066e5780601f106106435761010080835404028352916020019161066e565b820191906000526020600020905b81548152906001019060200180831161065157829003601f168201915b5050505050815260200160018201548152602001600282018054610691906114b4565b80601f01602080910402602001604051908101604052809291908181526020018280546106bd906114b4565b801561070a5780601f106106df5761010080835404028352916020019161070a565b820191906000526020600020905b8154815290600101906020018083116106ed57829003601f168201915b505050918352505060038201546001600160a01b0316602082015260048201805460409092019161073a906114b4565b80601f0160208091040260200160405190810160405280929190818152602001828054610766906114b4565b80156107b35780601f10610788576101008083540402835291602001916107b3565b820191906000526020600020905b81548152906001019060200180831161079657829003601f168201915b505050505081525050815260200190600101906105c2565b505050509050919050565b6040805180820190915260608152600060208201526001600160a01b03821660009081526001602052604090819020815180830190925280548290829061081c906114b4565b80601f0160208091040260200160405190810160405280929190818152602001828054610848906114b4565b80156108955780601f1061086a57610100808354040283529160200191610895565b820191906000526020600020905b81548152906001019060200180831161087857829003601f168201915b50505091835250506001919091015460ff16151560209091015292915050565b33600090815260026020526040902054811061090a5760405162461bcd60e51b815260206004820152600f60248201526e139bc81cdd58da081c995c5d595cdd608a1b60448201526064015b60405180910390fd5b3360009081526002602052604081208054909190829084908110610930576109306115ff565b9060005260206000209060040201905060008160010154670de0b6b3a764000061095a919061162b565b90508034146109a05760405162461bcd60e51b815260206004820152601260248201527114185e4818dbdc9c9958dd08185b5bdd5b9d60721b6044820152606401610901565b81546040516001600160a01b03909116903480156108fc02916000818181858888f193505050501580156109d8573d6000803e3d6000fd5b5081546001830154600284018054610a869333936001600160a01b03909116929091610a03906114b4565b80601f0160208091040260200160405190810160405280929190818152602001828054610a2f906114b4565b8015610a7c5780601f10610a5157610100808354040283529160200191610a7c565b820191906000526020600020905b815481529060010190602001808311610a5f57829003601f168201915b5050505050610d10565b82548390610a9690600190611648565b81548110610aa657610aa66115ff565b9060005260206000209060040201838581548110610ac657610ac66115ff565b60009182526020909120825460049092020180546001600160a01b0319166001600160a01b0390921691909117815560018083015490820155600280820190610b119084018261165b565b50600381810190610b249084018261165b565b5090505082805480610b3857610b38611736565b60008281526020812060046000199093019283020180546001600160a01b03191681556001810182905590610b706002830182611056565b610b7e600383016000611056565b5050905550505050565b610bbc604051806080016040528060006001600160a01b031681526020016000815260200160608152602001606081525090565b33808252602080830185905260408084018590526000928352600191829052909120015460ff1615610c89573360009081526001602052604090208054610c02906114b4565b80601f0160208091040260200160405190810160405280929190818152602001828054610c2e906114b4565b8015610c7b5780601f10610c5057610100808354040283529160200191610c7b565b820191906000526020600020905b815481529060010190602001808311610c5e57829003601f168201915b505050505081606001819052505b6001600160a01b03848116600090815260026020818152604080842080546001808201835591865294839020875160049096020180546001600160a01b03191695909616949094178555908501519284019290925590830151839291820190610cf2908261153f565b5060608201516003820190610d07908261153f565b50505050505050565b610d18611093565b6040805180820182526001808252602d60f81b6020808401919091529184528382018690528383018590526001600160a01b03871660608501819052600090815291819052919020015460ff1615610e14576001600160a01b03841660009081526001602052604090208054610d8d906114b4565b80601f0160208091040260200160405190810160405280929190818152602001828054610db9906114b4565b8015610e065780601f10610ddb57610100808354040283529160200191610e06565b820191906000526020600020905b815481529060010190602001808311610de957829003601f168201915b505050505081608001819052505b6001600160a01b038516600090815260036020908152604082208054600181018255908352912082518392600502909101908190610e52908261153f565b506020820151600182015560408201516002820190610e71908261153f565b5060608201516003820180546001600160a01b0319166001600160a01b0390921691909117905560808201516004820190610eac908261153f565b505050610eb7611093565b6040805180820182526001808252602b60f81b6020808401919091529184528382018790528383018690526001600160a01b03891660608501819052600090815291819052919020015460ff1615610fb3576001600160a01b03861660009081526001602052604090208054610f2c906114b4565b80601f0160208091040260200160405190810160405280929190818152602001828054610f58906114b4565b8015610fa55780601f10610f7a57610100808354040283529160200191610fa5565b820191906000526020600020905b815481529060010190602001808311610f8857829003601f168201915b505050505081608001819052505b6001600160a01b038516600090815260036020908152604082208054600181018255908352912082518392600502909101908190610ff1908261153f565b506020820151600182015560408201516002820190611010908261153f565b5060608201516003820180546001600160a01b0319166001600160a01b039092169190911790556080820151600482019061104b908261153f565b505050505050505050565b508054611062906114b4565b6000825580601f10611072575050565b601f01602090049060005260206000209081019061109091906110cb565b50565b6040518060a0016040528060608152602001600081526020016060815260200160006001600160a01b03168152602001606081525090565b5b808211156110e057600081556001016110cc565b5090565b634e487b7160e01b600052604160045260246000fd5b600082601f83011261110b57600080fd5b813567ffffffffffffffff80821115611126576111266110e4565b604051601f8301601f19908116603f0116810190828211818310171561114e5761114e6110e4565b8160405283815286602085880101111561116757600080fd5b836020870160208301376000602085830101528094505050505092915050565b60006020828403121561119957600080fd5b813567ffffffffffffffff8111156111b057600080fd5b6111bc848285016110fa565b949350505050565b80356001600160a01b03811681146111db57600080fd5b919050565b6000602082840312156111f257600080fd5b6111fb826111c4565b9392505050565b6000815180845260005b818110156112285760208185018101518683018201520161120c565b506000602082860101526020601f19601f83011685010191505092915050565b60008282518085526020808601955060208260051b8401016020860160005b8481101561129557601f19868403018952611283838351611202565b98840198925090830190600101611267565b5090979650505050505050565b6080808252855190820181905260009060209060a0840190828901845b828110156112e45781516001600160a01b0316845292840192908401906001016112bf565b5050508381038285015286518082528783019183019060005b81811015611319578351835292840192918401916001016112fd565b5050848103604086015261132d8188611248565b9250505082810360608401526113438185611248565b979650505050505050565b600060208083018184528085518083526040925060408601915060408160051b87010184880160005b8381101561140257603f19898403018552815160a0815181865261139d82870182611202565b915050888201518986015287820151858203898701526113bd8282611202565b6060848101516001600160a01b0316908801526080938401518782039488019490945291506113ee90508183611202565b968901969450505090860190600101611377565b509098975050505050505050565b60208152600082516040602084015261142c6060840182611202565b90506020840151151560408401528091505092915050565b60006020828403121561145657600080fd5b5035919050565b60008060006060848603121561147257600080fd5b61147b846111c4565b925060208401359150604084013567ffffffffffffffff81111561149e57600080fd5b6114aa868287016110fa565b9150509250925092565b600181811c908216806114c857607f821691505b6020821081036114e857634e487b7160e01b600052602260045260246000fd5b50919050565b601f82111561153a576000816000526020600020601f850160051c810160208610156115175750805b601f850160051c820191505b8181101561153657828155600101611523565b5050505b505050565b815167ffffffffffffffff811115611559576115596110e4565b61156d8161156784546114b4565b846114ee565b602080601f8311600181146115a2576000841561158a5750858301515b600019600386901b1c1916600185901b178555611536565b600085815260208120601f198616915b828110156115d1578886015182559484019460019091019084016115b2565b50858210156115ef5787850151600019600388901b60f8161c191681555b5050505050600190811b01905550565b634e487b7160e01b600052603260045260246000fd5b634e487b7160e01b600052601160045260246000fd5b808202811582820484141761164257611642611615565b92915050565b8181038181111561164257611642611615565b818103611666575050565b61167082546114b4565b67ffffffffffffffff811115611688576116886110e4565b6116968161156784546114b4565b6000601f8211600181146116ca57600083156116b25750848201545b600019600385901b1c1916600184901b17845561172f565b600085815260209020601f19841690600086815260209020845b8381101561170457828601548255600195860195909101906020016116e4565b50858310156117225781850154600019600388901b60f8161c191681555b50505060018360011b0184555b5050505050565b634e487b7160e01b600052603160045260246000fdfea26469706673582212205528e4ba5b1be4f56765fa896b1a23e657aa594eaa8f908eaacc38c95c50604f64736f6c63430008170033","linkReferences":{}},"methodIdentifiers":{"addName(string)":"11456b47","createRequest(address,uint256,string)":"ba9a7a9e","getMyHistory(address)":"370068aa","getMyRequests(address)":"347b1b83","getName(address)":"5fd4b08a","owner()":"8da5cb5b","payRequest(uint256)":"63d4dd3b"},"id":0}